:100000000C942A000C9434000C9434000C943400AA
:100010000C9434000C9434000C9434000C94340090
:100020000C9434000C9434000C9434000C94340080
:100030000C9434000C9434000C9434000C94340070
:100040000C9434000C9434000C9434000C94340060
:100050000C94340011241FBECFE5D8E0DEBFCDBF25
:100060000E9446000C9455000C94000010BC83E3E1
:1000700089B986E080BD88E18AB908955D9BFECF8D
:100080008CB908955F9BFECF8CB108958FEF87BB2D
:100090000E94360081E40E943E000E9442008A3A9B
:0E00A000E1F70E94420088BBF8CFF894FFCF32
:00000001FF
