:100000000C942A000C9434000C9434000C943400AA
:100010000C9434000C9434000C9434000C94340090
:100020000C9434000C9434000C9434000C94340080
:100030000C9434000C9434000C9434000C94340070
:100040000C9434000C9434000C9434000C94340060
:100050000C94340011241FBECFE5D8E0DEBFCDBF25
:100060000E9436000C947C000C940000B89AB99A57
:10007000BA9ABB9A51E042E034E028E090E188B3BC
:10008000852788BBE3ECF9E03197F1F700C0000069
:1000900088B3852788BB88B3842788BBE3ECF9E065
:1000A0003197F1F700C0000088B3842788BB88B37C
:1000B000832788BBE3ECF9E03197F1F700C000003B
:1000C00088B3832788BB88B3822788BBE3ECF9E039
:1000D0003197F1F700C0000088B3822788BB88B34E
:1000E000892788BBE3ECF9E03197F1F700C0000005
:0C00F00088B3892788BBC3CFF894FFCFEA
:00000001FF
