:100000000C942A000C9434000C9434000C943400AA
:100010000C9434000C9434000C9434000C94340090
:100020000C9434000C9434000C9434000C94340080
:100030000C9434000C9434000C9434000C94340070
:100040000C9434000C9434000C9434000C94340060
:100050000C94340011241FBECFE5D8E0DEBFCDBF25
:100060000E9449000C9459000C94000010BC89E1D6
:1000700089B988E18AB982E880BD08955D9BFECF89
:10008000509890FD509A8CB908955F9BFECF8CB12B
:1000900008958FEF87BB0E94360081E090E00E94B8
:1000A0003E000E9445008A3AE1F70E94450088BB65
:0600B000F8CFF894FFCF29
:00000001FF
