:100000000C942A000C9434000C9434000C943400AA
:100010000C9434000C9434000C9434000C94340090
:100020000C9434000C9434000C9434000C94340080
:100030000C9434000C9434000C9434000C94340070
:100040000C9434000C9434000C9434000C94340060
:100050000C94340011241FBECFE5D8E0DEBFCDBF25
:100060000E9436000C9448000C94000081B38FEF7E
:1000700081BB8FB5816A8FBD8EB58D608EBD8FE3DC
:1000800090E09BBD8ABD8FE790E099BD88BDFFCF12
:04009000F894FFCF12
:00000001FF
