:100000000C942A000C9434000C9434000C943400AA
:100010000C9434000C9434000C9434000C94340090
:100020000C9434000C9434000C9434000C94340080
:100030000C9434000C9434000C9434000C94340070
:100040000C9434000C9434000C9434000C94340060
:100050000C94340011241FBECFE5D8E0DEBFCDBF25
:100060000E94D7000C9407030C94000081B38FEF1B
:1000700081BB8FB5826C8FBD8EB589618EBD8FE1DE
:100080009EE497BD86BD08954F925F926F927F92D6
:100090008F929F92AF92BF92CF92DF92EF92FF9298
:1000A0000F931F93CF93DF9300D000D0CDB7DEB76F
:1000B0002B013C0149015A01E982FA820B831C831E
:1000C00066B577B580E090E00E9416026B017C0176
:1000D000A501940169817A818B819C810E941D0117
:1000E000A30192010E94A4029B01AC01C501B401CD
:1000F0000E941E019B01AC01C701B6010E941D01B7
:100100000E94EA017BBD6ABD0F900F900F900F9087
:10011000DF91CF911F910F91FF90EF90DF90CF90E3
:10012000BF90AF909F908F907F906F905F904F9017
:100130000895CF92DF92EF92FF920F931F93CF9388
:10014000DF9300D000D0CDB7DEB79B01AC0166B520
:1001500077B506B517B580E090E029833A834B83E5
:100160005C830E9416026B017C01B80180E090E084
:100170000E94160229813A814B815C810E94A4026F
:100180009B01AC01C701B6010E941D010E94EA015A
:100190007BBD6ABD0F900F900F900F90DF91CF91B4
:1001A0001F910F91FF90EF90DF90CF900895329ABA
:1001B0003F9A389A339A379A369A0E9436002FE33C
:1001C0008DE093E0215080409040E1F700C00000B6
:1001D00087EA91E60197F1F700C00000369A349B58
:1001E000FECF64B170E080E090E00E9416027B01D7
:1001F0008C0185B1D82F90E0C92FBE01882777FDEB
:100200008095982F0E9418029B01AC016E2D7F2DC6
:10021000802F912F0E941E0120E030EC4FE754E424
:100220000E948201E12CF12C0AEF14E420E030E07E
:100230004AE754E40E944400CBCF5058BB27AA277A
:100240000ED048C139D130F03ED120F031F49F3F7B
:1002500011F41EF42EC10EF4E095E7FB24C1E92F42
:100260004AD180F3BA17620773078407950718F01D
:1002700071F49EF562C10EF4E0950B2EBA2FA02DFD
:100280000B01B90190010C01CA01A0011124FF2743
:10029000591B99F0593F50F4503E68F11A16F0403E
:1002A000A22F232F342F4427585FF3CF469537953D
:1002B0002795A795F0405395C9F77EF41F16BA0B02
:1002C000620B730B840BBAF09150A1F0FF0FBB1FB0
:1002D000661F771F881FC2F70EC0BA0F621F731FF9
:1002E000841F48F4879577956795B795F7959E3F56
:1002F00008F0B3CF9395880F08F09927EE0F9795E4
:10030000879508950CD0E6C0DED040F0D5D030F00F
:1003100021F45F3F19F0C7C0511110C1CAC0EBD022
:1003200098F39923C9F35523B1F3951B550BBB27BC
:10033000AA2762177307840738F09F5F5F4F220F69
:10034000331F441FAA1FA9F333D00E2E3AF0E0E862
:1003500030D091505040E695001CCAF729D0FE2FAE
:1003600027D0660F771F881FBB1F26173707480740
:10037000AB07B0E809F0BB0B802DBF01FF279358F6
:100380005F4F2AF09E3F510568F08DC0D7C05F3F98
:10039000ECF3983EDCF3869577956795B795F795DE
:1003A0009F5FC9F7880F911D9695879597F90895D6
:1003B000E1E0660F771F881FBB1F62177307840772
:1003C000BA0720F0621B730B840BBA0BEE1F88F781
:1003D000E095089598D088F09F5790F0B92F99270D
:1003E000B751A0F0D1F0660F771F881F991F1AF040
:1003F000BA95C9F712C0B13081F09FD0B1E008952D
:100400009CC0672F782F8827B85F39F0B93FCCF3AD
:10041000869577956795B395D9F73EF49095809535
:10042000709561957F4F8F4F9F4F0895E89409C055
:1004300097FB3EF490958095709561957F4F8F4F17
:100440009F4F9923A9F0F92F96E9BB279395F6952D
:10045000879577956795B795F111F8CFFAF4BB0FAB
:1004600011F460FF1BC06F5F7F4F8F4F9F4F16C00F
:10047000882311F096E911C0772321F09EE8872F99
:10048000762F05C0662371F096E8862F70E060E055
:100490002AF09A95660F771F881FDAF7880F9695CE
:1004A000879597F9089597F99F6780E870E060E075
:1004B00008959FEF80EC089500240A9416161706FD
:1004C00018060906089500240A9412161306140645
:1004D00005060895092E0394000C11F4882352F0A8
:1004E000BB0F40F4BF2B11F460FF04C06F5F7F4F60
:1004F0008F4F9F4F089557FD9058440F551F59F047
:100500005F3F71F04795880F97FB991F61F09F3F00
:1005100079F087950895121613061406551FF2CF29
:100520004695F1DF08C0161617061806991FF1CF79
:1005300086957105610508940895E894BB276627A0
:100540007727CB0197F908950BD0C4CFB5DF28F0FA
:10055000BADF18F0952309F0A6CFABCF1124EECF68
:10056000CADFA0F3959FD1F3950F50E0551F629F0E
:10057000F001729FBB27F00DB11D639FAA27F00DFC
:10058000B11DAA1F649F6627B00DA11D661F829F23
:100590002227B00DA11D621F739FB00DA11D621F08
:1005A000839FA00D611D221F749F3327A00D611D25
:1005B000231F849F600D211D822F762F6A2F112407
:1005C0009F5750408AF0E1F088234AF0EE0FFF1F5A
:1005D000BB1F661F771F881F91505040A9F79E3F91
:1005E000510570F060CFAACF5F3FECF3983EDCF38B
:1005F000869577956795B795F795E7959F5FC1F7CE
:10060000FE2B880F911D9695879597F90895F8947C
:02061000FFCF1A
:00000001FF
