:100000000C942A000C9434000C9434000C943400AA
:100010000C9434000C9434000C9434000C94340090
:100020000C9434000C9434000C9434000C94340080
:100030000C9434000C9434000C9434000C94340070
:100040000C9434000C9434000C9434000C94340060
:100050000C94340011241FBECFE5D8E0DEBFCDBF25
:100060000E9436000C944F000C9400008FEF8ABB66
:100070008BB387608BBB2FE78AE196E021508040ED
:100080009040E1F700C0000091E08BB389278BBB63
:10009000E7EAF1E63197F1F700C00000F6CFF894F7
:0200A000FFCF90
:00000001FF
