:100000000C942A000C9434000C9434000C943400AA
:100010000C9434000C9434000C9434000C94340090
:100020000C9434000C9434000C9434000C94340080
:100030000C9434000C9434000C9434000C94340070
:100040000C9434000C9434000C9434000C94340060
:100050000C94340011241FBECFE5D8E0DEBFCDBF25
:100060000E9436000C946A000C94000081B38FEF5C
:1000700081BB8FB5826C8FBD8EB589618EBD8FE1DE
:100080009EE497BD86BD66B577B586B597B5885EA3
:1000900093409BBD8ABDCB012FEF3FEF46B557B5CF
:1000A000481B590B5BBD4ABDE0EEF0E03197F1F71C
:1000B00000C000008617970729F0883EF3E09F07ED
:1000C00031F403C02FEF3FEF02C021E030E0820F98
:0800D000931FE4CFF894FFCF69
:00000001FF
