:100000000C942A000C9434000C9434000C943400AA
:100010000C9434000C9434000C9434000C94340090
:100020000C9434000C9434000C9434000C94340080
:100030000C9434000C9434000C9434000C94340070
:100040000C9434000C9434000C9434000C94340060
:100050000C94340011241FBECFE5D8E0DEBFCDBF25
:100060000E9436010C9406030C9400008FEF8ABBAB
:1000700008959BB321E030E0082E01C0220F0A94BE
:10008000EAF792279BBB08952F923F924F925F927F
:100090006F927F928F929F92AF92BF92CF92DF9298
:1000A000EF92FF920F931F93CF93DF9300D000D076
:1000B0001F92CDB7DEB79D838C838B0169017A01D6
:1000C000882777FD8095982F0E94C7019B01AC017E
:1000D000C701B6010E9453020E9494017A8369838A
:1000E00088EE93E0B8010E94DE0281E090E0382EB5
:1000F0000C8001C0330C0A94EAF73B8200E010E068
:100100004B01AA2497FCA094BA2C84E6282E312C0B
:100110004AC08BB32B8182278BBB0F5F1F4FC5015A
:10012000B4010E94C7016B017C0120E030E04AE786
:1001300054E40E9453022B013C0120E030E040E8EF
:100140005FE3752D972D0E94900187FD27C020E069
:100150003FEF4FE757E4642D752D862D972D0E94B4
:100160004F021816A4F420E030E040E251E4C70149
:10017000B6010E9453020E94990105C0C101019776
:10018000F1F76150710961157105C1F70CC0642D5B
:10019000752D862D972D0E94990102C061E070E0B7
:1001A000CB010197F1F789819A81081719070CF49F
:1001B000B0CF8BB32C813D810C8002C0220F331F46
:1001C0000A94E2F7822B8BBB0F900F900F900F9049
:1001D0000F90DF91CF911F910F91FF90EF90DF90E3
:1001E000CF90BF90AF909F908F907F906F905F90D7
:1001F0004F903F902F90089510BC89E189B988E114
:100200008AB986E880BD0895CF93C82F5D9BFECF45
:100210002DEC3CEC4CE45EE36AE070E080E090E0C2
:100220000E944400CCB98AE08CB9CF910895CF9355
:10023000C82F5D9BFECF2DEC3CEC4CE45EE36AE006
:1002400070E080E090E00E944400CCB9CF91089526
:100250005F9BFECF20E030E040E85FE36AE070E0C3
:1002600081E090E00E9444008CB10895CFEFC7BBBD
:100270000E94FC00CABB20E030E040E85FE36AE097
:1002800070E081E090E00E94440020E030E040E82F
:100290005FE36AE070E080E090E00E94440088E55F
:1002A0000E94040188E50E94040188E50E9404017F
:1002B00088E50E940401C4E6D0E020E030E040E0A0
:1002C0005FE364E170E081E090E00E9444000E94FE
:1002D00028018A3A51F40E94040180E197E2FE016C
:1002E0003197F1F70197D9F7E8CF823331F781E001
:1002F00090E00E94390020E030E040E85FE36AE0EF
:1003000070E081E090E00E94440020E030E040E8AE
:100310005FE36AE070E080E090E00E944400CDCFAF
:1003200071D008F481E0089504D06894B111B1C08F
:10033000089594D088F09F5790F0B92F9927B7511E
:10034000A0F0D1F0660F771F881F991F1AF0BA9599
:10035000C9F712C0B13081F09BD0B1E0089598C0C8
:10036000672F782F8827B85F39F0B93FCCF386958F
:1003700077956795B395D9F73EF4909580957095EC
:1003800061957F4F8F4F9F4F0895E89409C097FB69
:100390003EF490958095709561957F4F8F4F9F4F5C
:1003A0009923A9F0F92F96E9BB279395F6958795A0
:1003B00077956795B795F111F8CFFAF4BB0F11F463
:1003C00060FF1BC06F5F7F4F8F4F9F4F16C088230A
:1003D00011F096E911C0772321F09EE8872F762F40
:1003E00005C0662371F096E8862F70E060E02AF081
:1003F0009A95660F771F881FDAF7880F969587956D
:1004000097F90895990F0008550FAA0BE0E8FEEF41
:1004100016161706E807F907C0F012161306E407C8
:10042000F50798F0621B730B840B950B39F40A26C1
:1004300061F0232B242B252B21F408950A2609F49F
:10044000A140A6958FEF811D811D089557FD9058FD
:10045000440F551F59F05F3F71F04795880F97FB88
:10046000991F61F09F3F79F0879508951216130642
:100470001406551FF2CF4695F1DF08C01616170671
:100480001806991FF1CF86957105610508940895A6
:10049000E894BB2766277727CB0197F90895B2DF49
:1004A00008F48FEF08950BD078C069D028F06ED093
:1004B00018F0952309F05AC05FC01124EACFC6DFB7
:1004C000A0F3959FD1F3950F50E0551F629FF00167
:1004D000729FBB27F00DB11D639FAA27F00DB11DC0
:1004E000AA1F649F6627B00DA11D661F829F222749
:1004F000B00DA11D621F739FB00DA11D621F839FD0
:10050000A00D611D221F749F3327A00D611D231FA5
:10051000849F600D211D822F762F6A2F11249F57F3
:1005200050408AF0E1F088234AF0EE0FFF1FBB1F16
:10053000661F771F881F91505040A9F79E3F5105B5
:1005400070F014C0A6CF5F3FECF3983EDCF38695C5
:1005500077956795B795F795E7959F5FC1F7FE2B60
:10056000880F911D9695879597F9089597F99F673C
:1005700080E870E060E008959FEF80EC089500242B
:100580000A941616170618060906089500240A94F8
:1005900012161306140605060895092E0394000C7E
:1005A00011F4882352F0BB0F40F4BF2B11F460FF0D
:1005B00004C06F5F7F4F8F4F9F4F089597FB072EAB
:1005C00016F4009407D077FD09D00E94F20207FCD0
:1005D00005D03EF4909581959F4F08957095619553
:1005E0007F4F0895AA1BBB1B51E107C0AA1FBB1F69
:1005F000A617B70710F0A61BB70B881F991F5A95AF
:10060000A9F780959095BC01CD010895F894FFCF8E
:00000001FF
