:100000000C9434000C9449000C9449000C94490061
:100010000C9449000C9449000C9449000C9449003C
:100020000C9449000C9449000C9449000C9449002C
:100030000C9449000C9449000C9449000C9449001C
:100040000C9449000C9449000C9449000C9449000C
:100050000C9449000C9449000C9449000C944900FC
:100060000C9449000C94490011241FBECFEFD8E036
:10007000DEBFCDBF11E0A0E0B1E0EEE1FCE002C0E8
:1000800005900D92A031B107D9F70E9487010C9419
:100090000D060C940000289887FD289A2A9886FD62
:1000A0002A9A299885FD299A5C9884FD5C9A439A3E
:1000B0000000439800000895CF93C82F45984398B7
:1000C0000E944B008C2F8295807FCF910C944B0027
:1000D000CF93C82F459A43980E944B008C2F82954E
:1000E000807FCF910C944B000F931F93CF93DF939E
:1000F00000D0CDB7DEB78C011A82198211C0E98118
:10010000FA81E00FF11F80810E94680029813A8105
:100110002F5F3F4F3A8329838AE18A95F1F700C028
:10012000E981FA81E00FF11F80818111E8CF0F9002
:100130000F90DF91CF911F910F910895CF92DF9291
:10014000EF92FF926A017B010E94740020E030E090
:100150004AE754E4C701B6010E94AA020E94F401D2
:1001600080E007C0E3ECF9E03197F1F700C0000050
:100170008F5F8613F7CF81E00E945C0080E80E94C9
:100180005C0087EE93E00197F1F700C00000FF905C
:10019000EF90DF90CF90089587EA91E60197F1F70D
:1001A00000C000004598439888E10E944B0083EC12
:1001B00099E00197F1F700C0000088E10E944B0030
:1001C00092E49A95F1F700C088E10E944B0082E426
:1001D0008A95F1F700C088E20E944B009AE19A9557
:1001E000F1F700C081E00E945C0087EE93E0019788
:1001F000F1F700C0000086E00E945C009AE19A9549
:10020000F1F700C08CE00E945C008AE18A95F1F76A
:1002100000C00895892B11F05F9808955F9A0895A2
:100220004098389A80EA8A95F1F7389894E19A953F
:10023000F1F786B19CE89A95F1F78170089540989E
:10024000389A00008111389884E18A95F1F738983E
:1002500008954098389A0000389884E08A95F1F71C
:1002600000C086B181709FE09A95F1F70895CF9311
:10027000DF93D82FC9E005C08D2F81700E941F0128
:10028000D695C150C9F7DF91CF910895CF93DF93F1
:10029000D9E0C0E008C00E94290120E8829FC00187
:1002A0001124C695C82BD150B1F78C2FDF91CF9177
:1002B0000895CF93F8940E9410018CEC0E943701AE
:1002C00084E40E9437010E9429018823E1F30E94FF
:1002D00010018CEC0E9437018EEB0E9437010E94C6
:1002E0004601C82F0E9446017894782F60E06C0F79
:1002F000711D882777FD8095982F0E94220220E0AB
:1003000030E040E85DE30E94AA02CF910895579A39
:1003100080E090E00E940A01209A229A219A549A41
:100320003B9A3D9A2FE38DE093E02150804090402E
:10033000E1F700C000000E94CC0080E80E945C0051
:100340002AE12A95F1F700C00E9459017894C9E08A
:10035000D1E000E011E00E94590120E030E040E2ED
:1003600051E40E94AA026B017C017D2D9F2D0E9409
:10037000EF017F936F93DF93CF931F930F930E94AF
:10038000350340E050E46CE176E480E091E00E94C7
:100390009E000F900F900F900F900F900F9020E005
:1003A00030E04EE153E46C2D7D2D8E2D9F2D0E946B
:1003B000EB0187FF02C05F9804C080E090E00E94DC
:1003C0000A012FE78AE196E0215080409040E1F752
:1003D00000C00000C0CF71D008F481E0089504D0BF
:1003E0006894B111B1C0089594D088F09F5790F0EF
:1003F000B92F9927B751A0F0D1F0660F771F881F4A
:10040000991F1AF0BA95C9F712C0B13081F09BD08C
:10041000B1E0089598C0672F782F8827B85F39F02A
:10042000B93FCCF3869577956795B395D9F73EF4A8
:1004300090958095709561957F4F8F4F9F4F089550
:10044000E89409C097FB3EF490958095709561956E
:100450007F4F8F4F9F4F9923A9F0F92F96E9BB2724
:100460009395F695879577956795B795F111F8CFA0
:10047000FAF4BB0F11F460FF1BC06F5F7F4F8F4F0B
:100480009F4F16C0882311F096E911C0772321F001
:100490009EE8872F762F05C0662371F096E8862F99
:1004A00070E060E02AF09A95660F771F881FDAF7F0
:1004B000880F9695879597F90895990F0008550F1D
:1004C000AA0BE0E8FEEF16161706E807F907C0F0DA
:1004D00012161306E407F50798F0621B730B840BE2
:1004E000950B39F40A2661F0232B242B252B21F4BC
:1004F00008950A2609F4A140A6958FEF811D811D5C
:10050000089557FD9058440F551F59F05F3F71F003
:100510004795880F97FB991F61F09F3F79F087956A
:100520000895121613061406551FF2CF4695F1DFF3
:1005300008C0161617061806991FF1CF8695710583
:10054000610508940895E894BB2766277727CB01B7
:1005500097F908950BD078C069D028F06ED018F0C4
:10056000952309F05AC05FC01124EECFCADFA0F373
:10057000959FD1F3950F50E0551F629FF001729F38
:10058000BB27F00DB11D639FAA27F00DB11DAA1F57
:10059000649F6627B00DA11D661F829F2227B00DA4
:1005A000A11D621F739FB00DA11D621F839FA00D2F
:1005B000611D221F749F3327A00D611D231F849F7F
:1005C000600D211D822F762F6A2F11249F575040D6
:1005D0008AF0E1F088234AF0EE0FFF1FBB1F661F71
:1005E000771F881F91505040A9F79E3F510570F02A
:1005F00014C0AACF5F3FECF3983EDCF38695779565
:100600006795B795F795E7959F5FC1F7FE2B880F24
:10061000911D9695879597F9089597F99F6780E8BA
:1006200070E060E008959FEF80EC089500240A9444
:100630001616170618060906089500240A941216BD
:100640001306140605060895092E0394000C11F4F0
:10065000882352F0BB0F40F4BF2B11F460FF04C09D
:100660006F5F7F4F8F4F9F4F0895A0E1B0E0EBE3A6
:10067000F3E00C94E4050F89188D86E08C831A83CF
:1006800009838FEF9FE79E838D83AE01455E5F4FA9
:10069000588B4F87698D7A8DCE0101960E94590340
:1006A000EF81F885E00FF11F10826096E4E00C9472
:1006B0000006ACE0B0E0EFE5F3E00C94D6057C0179
:1006C0006B018A01FC0117821682838181FFC7C1F9
:1006D00088248394912C8C0E9D1EF7019381F60142
:1006E00093FD859193FF81916F01882309F4B3C134
:1006F000853239F493FD859193FF81916F018532A5
:1007000029F4B70190E00E944C05E7CF712C312C01
:1007100020E02032A8F48B3261F028F4803251F0CE
:10072000833271F40BC08D3239F0803349F421608B
:1007300028C02260246025C0286023C0206121C019
:1007400027FD27C0382F30533A3078F426FF06C0F3
:10075000FAE07F9E300D1124732E13C08AE0389E7C
:10076000300D1124332E20620CC08E3221F426FD70
:1007700072C1206406C08C3611F4206802C088362D
:1007800041F4F60193FD859193FF81916F018111F1
:10079000C0CF982F9554933018F09052933028F48E
:1007A0000C5F1F4FFFE3F9830DC0833631F08337B1
:1007B00071F0833509F05EC023C0F8018081898320
:1007C0000E5F1F4F66246394712C540115C02801DD
:1007D000F2E04F0E511CF801A080B18026FF03C04B
:1007E000672D70E002C06FEF7FEFC5012C870E947C
:1007F00041053C0182012C856FE7262E222218C07C
:100800002801F2E04F0E511CF801A080B18026FFB4
:1008100003C0672D70E002C06FEF7FEFC5012C872A
:100820000E9436053C012C8550E8252E222A8201A3
:1008300023FC1CC006C0B70180E290E00E944C057A
:100840003A94832D90E068167906A8F30FC0F5015D
:1008500027FC859127FE81915F01B70190E00E94FE
:100860004C0531103A94F1E06F1A7108611471046B
:1008700071F7EEC0843611F0893641F5F80127FF93
:1008800007C060817181828193810C5F1F4F08C016
:1008900060817181882777FD8095982F0E5F1F4FAB
:1008A0004FE6642E622297FF09C09095809570955F
:1008B00061957F4F8F4F9F4FF0E86F2A2AE030E01D
:1008C000A4010E947805A82EA81844C0853731F4E9
:1008D0003FEEB32EB2222AE030E024C099EFB92EC9
:1008E000B2228F36B9F020F4883509F0B4C00DC0BB
:1008F000803721F0883709F0AEC002C020E1B22A6B
:10090000B4FE0BC084E0B82A08C024FF09C0E6E0AA
:10091000BE2A06C028E030E005C020E130E002C079
:1009200020E132E0F801B7FE07C060817181828169
:1009300093810C5F1F4F06C06081718180E090E061
:100940000E5F1F4FA4010E947805A82EA8188FE7FC
:10095000682E6B2066FE0BC0362D3E7FA71450F428
:1009600064FE0AC062FC08C0362D3E7E05C0BA2C6B
:10097000362D03C0BA2C01C0B72C34FF0DC0FE01C8
:10098000EA0DF11D8081803311F4397E09C032FFF8
:1009900006C0B394B39404C0832F867809F0B3944F
:1009A00033FD14C030FF0FC07A2CB31460F4730C05
:1009B0007B18B32C08C0B70180E290E03C870E940E
:1009C0004C05B3943C85B314B0F304C0B31410F4D5
:1009D0003B1801C0312C34FF12C0B70180E390E016
:1009E0003C870E944C053C8532FF1EC031FF03C08E
:1009F00088E590E002C088E790E0B7010CC0832F43
:100A0000867891F031FD02C080E201C08BE237FDB3
:100A10008DE2B70190E00E944C0506C0B70180E36B
:100A200090E00E944C057A94A714C0F3AA94F401B4
:100A3000EA0DF11DB701808190E00E944C05A110E4
:100A4000F5CF06C0B70180E290E00E944C053A94D1
:100A50003110F8CF42CEF7012681378102C02FEF47
:100A60003FEFC9012C96E2E10C94F205FC010590E0
:100A7000615070400110D8F7809590958E0F9F1FA0
:100A80000895FC016150704001900110D8F78095E5
:100A900090958E0F9F1F08950F931F93CF93DF9311
:100AA0008C01EB018B8181FD03C00FEF1FEF1AC09A
:100AB00082FF0DC02E813F818C819D8128173907CF
:100AC00064F4E881F9810193F983E88306C0E8853D
:100AD000F985802F0995892B41F78E819F81019699
:100AE0009F838E83C801DF91CF911F910F9108954D
:100AF000FA01AA27283051F1203181F1E8946F934F
:100B00006E7F6E5F7F4F8F4F9F4FAF4FB1E03ED0F4
:100B1000B4E03CD0670F781F891F9A1FA11D680F92
:100B2000791F8A1F911DA11D6A0F711D811D911DC5
:100B3000A11D20D009F468943F912AE0269F11243A
:100B40003019305D3193DEF6CF010895462F47709E
:100B5000405D4193B3E00FD0C9F7F6CF462F4F70F9
:100B6000405D4A3318F0495D31FD4052419302D057
:100B7000A9F7EACFB4E0A6959795879577956795FD
:100B8000BA95C9F700976105710508959B01AC01FD
:100B90000A2E06945795479537952795BA95C9F724
:100BA000620F731F841F951FA01D08952F923F92FF
:100BB0004F925F926F927F928F929F92AF92BF926D
:100BC000CF92DF92EF92FF920F931F93CF93DF9319
:100BD000CDB7DEB7CA1BDB0B0FB6F894DEBF0FBE76
:100BE000CDBF09942A88398848885F846E847D84C3
:100BF0008C849B84AA84B984C884DF80EE80FD80C5
:100C00000C811B81AA81B981CE0FD11D0FB6F8943A
:0E0C1000DEBF0FBECDBFED010895F894FFCFFB
:100C1E00427265774D61746500252B312E3164006B
:00000001FF
