:100000000C9434000C9449000C9449000C94490061
:100010000C9449000C9449000C9449000C9449003C
:100020000C9449000C9449000C9449000C9449002C
:100030000C9449000C9449000C9449000C9449001C
:100040000C9449000C9449000C9449000C9449000C
:100050000C9449000C9449000C9449000C944900FC
:100060000C9449000C94490011241FBECFEFD8E036
:10007000DEBFCDBF11E0A0E0B1E0E8EEF1E002C0EC
:1000800005900D92AA30B107D9F70E94DC000C94BC
:10009000F2000C9400005F9887FD5F9A5E9886FDE1
:1000A0005E9A5D9885FD5D9A5C9884FD5C9A439AA2
:1000B0000000439800000895CF93C82F45984398B7
:1000C0000E944B008C2F8295807FCF910C944B0027
:1000D000CF93C82F459A43980E944B008C2F82954E
:1000E000807FCF910C944B000F931F93CF93DF939E
:1000F00000D0CDB7DEB78C011A82198211C0E98118
:10010000FA81E00FF11F80810E94680029813A8105
:100110002F5F3F4F3A8329838AE18A95F1F700C028
:10012000E981FA81E00FF11F80818111E8CF0F9002
:100130000F90DF91CF911F910F91089587EA91E67B
:100140000197F1F700C000004598439888E10E94AC
:100150004B0083EC99E00197F1F700C0000088E1C3
:100160000E944B0092E49A95F1F700C088E10E944A
:100170004B0082E48A95F1F700C088E20E944B00B0
:100180009AE19A95F1F700C081E00E945C0087EE49
:1001900093E00197F1F700C0000086E00E945C0048
:1001A0009AE19A95F1F700C08CE00E945C008AE128
:1001B0008A95F1F700C00895209A289A579A569A7E
:1001C000559A549A3B9A3D9A0E949E0080E80E945C
:1001D0005C008AE18A95F1F700C080E091E00E941E
:0801E0007400FFCFF894FFCF7B
:0A01E800427265774D6174650000F6
:00000001FF
